{
  "contractName": "Acsfcp",
  "abi": [
    {
      "inputs": [],
      "payable": false,
      "stateMutability": "nonpayable",
      "type": "constructor"
    },
    {
      "anonymous": false,
      "inputs": [
        {
          "indexed": false,
          "internalType": "uint256",
          "name": "id",
          "type": "uint256"
        },
        {
          "indexed": false,
          "internalType": "string",
          "name": "name",
          "type": "string"
        },
        {
          "indexed": false,
          "internalType": "string",
          "name": "shop_name",
          "type": "string"
        },
        {
          "indexed": false,
          "internalType": "string",
          "name": "size",
          "type": "string"
        },
        {
          "indexed": false,
          "internalType": "string",
          "name": "material",
          "type": "string"
        },
        {
          "indexed": false,
          "internalType": "string",
          "name": "tipe",
          "type": "string"
        },
        {
          "indexed": false,
          "internalType": "address",
          "name": "owner",
          "type": "address"
        }
      ],
      "name": "ClothCreated",
      "type": "event"
    },
    {
      "constant": true,
      "inputs": [
        {
          "internalType": "uint256",
          "name": "",
          "type": "uint256"
        }
      ],
      "name": "cloths",
      "outputs": [
        {
          "internalType": "uint256",
          "name": "id",
          "type": "uint256"
        },
        {
          "internalType": "string",
          "name": "name",
          "type": "string"
        },
        {
          "internalType": "string",
          "name": "shop_name",
          "type": "string"
        },
        {
          "internalType": "string",
          "name": "size",
          "type": "string"
        },
        {
          "internalType": "string",
          "name": "material",
          "type": "string"
        },
        {
          "internalType": "string",
          "name": "tipe",
          "type": "string"
        },
        {
          "internalType": "address",
          "name": "owner",
          "type": "address"
        }
      ],
      "payable": false,
      "stateMutability": "view",
      "type": "function"
    },
    {
      "constant": true,
      "inputs": [],
      "name": "name",
      "outputs": [
        {
          "internalType": "string",
          "name": "",
          "type": "string"
        }
      ],
      "payable": false,
      "stateMutability": "view",
      "type": "function"
    },
    {
      "constant": true,
      "inputs": [],
      "name": "productCount",
      "outputs": [
        {
          "internalType": "uint256",
          "name": "",
          "type": "uint256"
        }
      ],
      "payable": false,
      "stateMutability": "view",
      "type": "function"
    },
    {
      "constant": false,
      "inputs": [
        {
          "internalType": "string",
          "name": "_name",
          "type": "string"
        },
        {
          "internalType": "string",
          "name": "_shop_name",
          "type": "string"
        },
        {
          "internalType": "string",
          "name": "_size",
          "type": "string"
        },
        {
          "internalType": "string",
          "name": "_material",
          "type": "string"
        },
        {
          "internalType": "string",
          "name": "_tipe",
          "type": "string"
        }
      ],
      "name": "createCloth",
      "outputs": [],
      "payable": false,
      "stateMutability": "nonpayable",
      "type": "function"
    }
  ],
  "bytecode": "0x6080604052600060015534801561001557600080fd5b506040518060600160405280602f8152602001620010a4602f91396000908051906020019061004592919061004b565b506100f0565b828054600181600116156101000203166002900490600052602060002090601f016020900481019282601f1061008c57805160ff19168380011785556100ba565b828001600101855582156100ba579182015b828111156100b957825182559160200191906001019061009e565b5b5090506100c791906100cb565b5090565b6100ed91905b808211156100e95760008160009055506001016100d1565b5090565b90565b610fa480620001006000396000f3fe608060405234801561001057600080fd5b506004361061004c5760003560e01c806306fdde031461005157806308f5bbd4146100d4578063e0f6ef87146103eb578063f283e36114610409575b600080fd5b61005961069a565b6040518080602001828103825283818151815260200191508051906020019080838360005b8381101561009957808201518184015260208101905061007e565b50505050905090810190601f1680156100c65780820380516001836020036101000a031916815260200191505b509250505060405180910390f35b6103e9600480360360a08110156100ea57600080fd5b810190808035906020019064010000000081111561010757600080fd5b82018360208201111561011957600080fd5b8035906020019184600183028401116401000000008311171561013b57600080fd5b91908080601f016020809104026020016040519081016040528093929190818152602001838380828437600081840152601f19601f8201169050808301925050505050505091929192908035906020019064010000000081111561019e57600080fd5b8201836020820111156101b057600080fd5b803590602001918460018302840111640100000000831117156101d257600080fd5b91908080601f016020809104026020016040519081016040528093929190818152602001838380828437600081840152601f19601f8201169050808301925050505050505091929192908035906020019064010000000081111561023557600080fd5b82018360208201111561024757600080fd5b8035906020019184600183028401116401000000008311171561026957600080fd5b91908080601f016020809104026020016040519081016040528093929190818152602001838380828437600081840152601f19601f820116905080830192505050505050509192919290803590602001906401000000008111156102cc57600080fd5b8201836020820111156102de57600080fd5b8035906020019184600183028401116401000000008311171561030057600080fd5b91908080601f016020809104026020016040519081016040528093929190818152602001838380828437600081840152601f19601f8201169050808301925050505050505091929192908035906020019064010000000081111561036357600080fd5b82018360208201111561037557600080fd5b8035906020019184600183028401116401000000008311171561039757600080fd5b91908080601f016020809104026020016040519081016040528093929190818152602001838380828437600081840152601f19601f820116905080830192505050505050509192919290505050610738565b005b6103f3610b6a565b6040518082815260200191505060405180910390f35b6104356004803603602081101561041f57600080fd5b8101908080359060200190929190505050610b70565b6040518088815260200180602001806020018060200180602001806020018773ffffffffffffffffffffffffffffffffffffffff1673ffffffffffffffffffffffffffffffffffffffff16815260200186810386528c818151815260200191508051906020019080838360005b838110156104bd5780820151818401526020810190506104a2565b50505050905090810190601f1680156104ea5780820380516001836020036101000a031916815260200191505b5086810385528b818151815260200191508051906020019080838360005b83811015610523578082015181840152602081019050610508565b50505050905090810190601f1680156105505780820380516001836020036101000a031916815260200191505b5086810384528a818151815260200191508051906020019080838360005b8381101561058957808201518184015260208101905061056e565b50505050905090810190601f1680156105b65780820380516001836020036101000a031916815260200191505b50868103835289818151815260200191508051906020019080838360005b838110156105ef5780820151818401526020810190506105d4565b50505050905090810190601f16801561061c5780820380516001836020036101000a031916815260200191505b50868103825288818151815260200191508051906020019080838360005b8381101561065557808201518184015260208101905061063a565b50505050905090810190601f1680156106825780820380516001836020036101000a031916815260200191505b509c5050505050505050505050505060405180910390f35b60008054600181600116156101000203166002900480601f0160208091040260200160405190810160405280929190818152602001828054600181600116156101000203166002900480156107305780601f1061070557610100808354040283529160200191610730565b820191906000526020600020905b81548152906001019060200180831161071357829003601f168201915b505050505081565b600085511161074657600080fd5b600084511161075457600080fd5b600083511161076257600080fd5b600082511161077057600080fd5b600081511161077e57600080fd5b6001600081548092919060010191905055506040518060e0016040528060015481526020018681526020018581526020018481526020018381526020018281526020013373ffffffffffffffffffffffffffffffffffffffff16815250600260006001548152602001908152602001600020600082015181600001556020820151816001019080519060200190610816929190610eca565b506040820151816002019080519060200190610833929190610eca565b506060820151816003019080519060200190610850929190610eca565b50608082015181600401908051906020019061086d929190610eca565b5060a082015181600501908051906020019061088a929190610eca565b5060c08201518160060160006101000a81548173ffffffffffffffffffffffffffffffffffffffff021916908373ffffffffffffffffffffffffffffffffffffffff1602179055509050507fb7ece3d10a5dba5dd677d9fe2fc2105855d87fad72fbb934c1aa22e1dd8509af6001548686868686336040518088815260200180602001806020018060200180602001806020018773ffffffffffffffffffffffffffffffffffffffff1673ffffffffffffffffffffffffffffffffffffffff16815260200186810386528c818151815260200191508051906020019080838360005b8381101561098757808201518184015260208101905061096c565b50505050905090810190601f1680156109b45780820380516001836020036101000a031916815260200191505b5086810385528b818151815260200191508051906020019080838360005b838110156109ed5780820151818401526020810190506109d2565b50505050905090810190601f168015610a1a5780820380516001836020036101000a031916815260200191505b5086810384528a818151815260200191508051906020019080838360005b83811015610a53578082015181840152602081019050610a38565b50505050905090810190601f168015610a805780820380516001836020036101000a031916815260200191505b50868103835289818151815260200191508051906020019080838360005b83811015610ab9578082015181840152602081019050610a9e565b50505050905090810190601f168015610ae65780820380516001836020036101000a031916815260200191505b50868103825288818151815260200191508051906020019080838360005b83811015610b1f578082015181840152602081019050610b04565b50505050905090810190601f168015610b4c5780820380516001836020036101000a031916815260200191505b509c5050505050505050505050505060405180910390a15050505050565b60015481565b6002602052806000526040600020600091509050806000015490806001018054600181600116156101000203166002900480601f016020809104026020016040519081016040528092919081815260200182805460018160011615610100020316600290048015610c225780601f10610bf757610100808354040283529160200191610c22565b820191906000526020600020905b815481529060010190602001808311610c0557829003601f168201915b505050505090806002018054600181600116156101000203166002900480601f016020809104026020016040519081016040528092919081815260200182805460018160011615610100020316600290048015610cc05780601f10610c9557610100808354040283529160200191610cc0565b820191906000526020600020905b815481529060010190602001808311610ca357829003601f168201915b505050505090806003018054600181600116156101000203166002900480601f016020809104026020016040519081016040528092919081815260200182805460018160011615610100020316600290048015610d5e5780601f10610d3357610100808354040283529160200191610d5e565b820191906000526020600020905b815481529060010190602001808311610d4157829003601f168201915b505050505090806004018054600181600116156101000203166002900480601f016020809104026020016040519081016040528092919081815260200182805460018160011615610100020316600290048015610dfc5780601f10610dd157610100808354040283529160200191610dfc565b820191906000526020600020905b815481529060010190602001808311610ddf57829003601f168201915b505050505090806005018054600181600116156101000203166002900480601f016020809104026020016040519081016040528092919081815260200182805460018160011615610100020316600290048015610e9a5780601f10610e6f57610100808354040283529160200191610e9a565b820191906000526020600020905b815481529060010190602001808311610e7d57829003601f168201915b5050505050908060060160009054906101000a900473ffffffffffffffffffffffffffffffffffffffff16905087565b828054600181600116156101000203166002900490600052602060002090601f016020900481019282601f10610f0b57805160ff1916838001178555610f39565b82800160010185558215610f39579182015b82811115610f38578251825591602001919060010190610f1d565b5b509050610f469190610f4a565b5090565b610f6c91905b80821115610f68576000816000905550600101610f50565b5090565b9056fea265627a7a723158200eee20a282dc5188b248470491edd4db4d53120e2a42f0f65424cf8ea8758c1164736f6c63430005100032416e746920436f756e746572666574696e672053797374656d20666f7220436c6f7468696e672050726f6475637473",
  "source": "pragma solidity ^0.5.0;\n\ncontract Acsfcp {\n    string public name;\n    uint public productCount = 0;\n    mapping(uint => Cloth) public cloths;\n\n    struct Cloth {\n        uint id;\n        string name;\n        string shop_name;\n        string size;\n        string material;\n        string tipe;\n        address owner;\n    }\n\n    event ClothCreated(\n        uint id,\n        string name,\n        string shop_name,\n        string size,\n        string material,\n        string tipe,\n        address owner\n    );\n\n    constructor() public{\n        name = \"Anti Counterfeting System for Clothing Products\";\n    }\n\n    function createCloth(string memory _name, string memory _shop_name, string memory _size, string memory _material, string memory _tipe) public {\n    // Require a valid name\n    require(bytes(_name).length > 0);\n    require(bytes(_shop_name).length > 0);\n    require(bytes(_size).length > 0);\n    require(bytes(_material).length > 0);\n    require(bytes(_tipe).length > 0);\n    // Require a valid price\n    // Increment product count\n    productCount ++;\n    // Create the product\n    cloths[productCount] = Cloth(productCount, _name, _shop_name, _size, _material, _tipe, msg.sender);\n    // Trigger an event\n    emit ClothCreated(productCount, _name, _shop_name, _size, _material, _tipe, msg.sender);\n}\n}",
  "sourcePath": "/Users/pratama/ascfcp/src/contracts/acsfcp.sol",
  "compiler": {
    "name": "solc",
    "version": "0.5.16+commit.9c3226ce.Emscripten.clang"
  },
  "schemaVersion": "3.4.1",
  "updatedAt": "2021-07-09T21:29:48.007Z",
  "devdoc": {
    "methods": {}
  },
  "userdoc": {
    "methods": {}
  }
}